:020000040000fa
:080000000002040000000000f2
:020000040000fa
:0400080000030000f1
:020000040000fa
:04000c0000030000ed
:020000040000fa
:0400100000030000e9
:020000040000fa
:0400140000030000e5
:020000040000fa
:0400180000030000e1
:020000040000fa
:04001c0000030000dd
:020000040000fa
:0400200000030000d9
:020000040000fa
:0400240000030000d5
:020000040000fa
:0400280000030000d1
:020000040000fa
:04002c0000030000cd
:020000040000fa
:0400300000030000c9
:020000040000fa
:04003400d0020000f6
:020000040000fa
:0400380000030000c1
:020000040000fa
:04003c0000030000bd
:020000040000fa
:0400400000030000b9
:020000040000fa
:0400440000030000b5
:020000040000fa
:0400480000030000b1
:020000040000fa
:04004c0000030000ad
:020000040000fa
:0400500000030000a9
:020000040000fa
:0400540000030000a5
:020000040000fa
:0400580000030000a1
:020000040000fa
:04005c00000300009d
:020000040000fa
:040060000003000099
:020000040000fa
:040064000003000095
:020000040000fa
:040068000003000091
:020000040000fa
:04006c00000300008d
:020000040000fa
:040070000003000089
:020000040000fa
:040074000003000085
:020000040000fa
:040078000003000081
:020000040000fa
:04007c00000300007d
:020000040000fa
:040080000003000079
:020000040000fa
:040084000003000075
:020000040000fa
:040088000003000071
:020000040000fa
:04008c00000300006d
:020000040000fa
:040090000003000069
:020000040000fa
:040094000003000065
:020000040000fa
:040098000003000061
:020000040000fa
:04009c00000300005d
:020000040000fa
:0400a0000003000059
:020000040000fa
:0400a4000003000055
:020000040000fa
:0400a8000003000051
:020000040000fa
:0400ac00000300004d
:020000040000fa
:0400b0000003000049
:020000040000fa
:0400b4000003000045
:020000040000fa
:0400b8000003000041
:020000040000fa
:0400bc00000300003d
:020000040000fa
:0400c0000003000039
:020000040000fa
:0400c4000003000035
:020000040000fa
:0400c8000003000031
:020000040000fa
:0400cc00000300002d
:020000040000fa
:0400d0000003000029
:020000040000fa
:0400d4000003000025
:020000040000fa
:0400d8000003000021
:020000040000fa
:0400dc00000300001d
:020000040000fa
:0400e0000003000019
:020000040000fa
:0400e4000003000015
:020000040000fa
:0400e8000003000011
:020000040000fa
:0400ec00000300000d
:020000040000fa
:0400f0000003000009
:020000040000fa
:0400f4000003000005
:020000040000fa
:0400f8000003000001
:020000040000fa
:0400fc0000030000fd
:020000040000fa
:0401000000030000f8
:020000040000fa
:0401040000030000f4
:020000040000fa
:0401080000030000f0
:020000040000fa
:04010c0000030000ec
:020000040000fa
:0401100000030000e8
:020000040000fa
:0401140000030000e4
:020000040000fa
:0401180000030000e0
:020000040000fa
:04011c0000030000dc
:020000040000fa
:0401200000030000d8
:020000040000fa
:0401240000030000d4
:020000040000fa
:0401280000030000d0
:020000040000fa
:04012c0000030000cc
:020000040000fa
:0401300000030000c8
:020000040000fa
:0401340000030000c4
:020000040000fa
:0401380000030000c0
:020000040000fa
:04013c0000030000bc
:020000040000fa
:0401400000030000b8
:020000040000fa
:0401440000030000b4
:020000040000fa
:0401480000030000b0
:020000040000fa
:04014c0000030000ac
:020000040000fa
:0401500000030000a8
:020000040000fa
:0401540000030000a4
:020000040000fa
:0401580000030000a0
:020000040000fa
:04015c00000300009c
:020000040000fa
:040160000003000098
:020000040000fa
:040164000003000094
:020000040000fa
:0402080000030000ef
:020000040000fa
:04020c0000030000eb
:020000040000fa
:0402100000030000e7
:020000040000fa
:0402140000030000e3
:020000040000fa
:0402180000030000df
:020000040000fa
:04021c0000030000db
:020000040000fa
:0402200000030000d7
:020000040000fa
:0402240000030000d3
:020000040000fa
:0402280000030000cf
:020000040000fa
:04022c0000030000cb
:020000040000fa
:0402300000030000c7
:020000040000fa
:04023400d0020000f4
:020000040000fa
:0402380000030000bf
:020000040000fa
:04023c0000030000bb
:020000040000fa
:0402400000030000b7
:020000040000fa
:0402440000030000b3
:020000040000fa
:0402480000030000af
:020000040000fa
:04024c0000030000ab
:020000040000fa
:0402500000030000a7
:020000040000fa
:0402540000030000a3
:020000040000fa
:04025800000300009f
:020000040000fa
:04025c00000300009b
:020000040000fa
:040260000003000097
:020000040000fa
:040264000003000093
:020000040000fa
:04026800000300008f
:020000040000fa
:04026c00000300008b
:020000040000fa
:040270000003000087
:020000040000fa
:040274000003000083
:020000040000fa
:04027800000300007f
:020000040000fa
:04027c00000300007b
:020000040000fa
:040280000003000077
:020000040000fa
:040284000003000073
:020000040000fa
:04028800000300006f
:020000040000fa
:04028c00000300006b
:020000040000fa
:040290000003000067
:020000040000fa
:040294000003000063
:020000040000fa
:04029800000300005f
:020000040000fa
:04029c00000300005b
:020000040000fa
:0402a0000003000057
:020000040000fa
:0402a4000003000053
:020000040000fa
:0402a800000300004f
:020000040000fa
:0402ac00000300004b
:020000040000fa
:0402b0000003000047
:020000040000fa
:0402b4000003000043
:020000040000fa
:0402b800000300003f
:020000040000fa
:0402bc00000300003b
:020000040000fa
:0402c0000003000037
:020000040000fa
:0402c4000003000033
:020000040000fa
:0402c800000300002f
:020000040000fa
:0402cc00000300002b
:020000040000fa
:0402d0000003000027
:020000040000fa
:0402d4000003000023
:020000040000fa
:0402d800000300001f
:020000040000fa
:0402dc00000300001b
:020000040000fa
:0402e0000003000017
:020000040000fa
:0402e4000003000013
:020000040000fa
:0402e800000300000f
:020000040000fa
:0402ec00000300000b
:020000040000fa
:0402f0000003000007
:020000040000fa
:0402f4000003000003
:020000040000fa
:0402f80000030000ff
:020000040000fa
:0402fc0000030000fb
:020000040000fa
:0403000000030000f6
:020000040000fa
:0403040000030000f2
:020000040000fa
:0403080000030000ee
:020000040000fa
:04030c0000030000ea
:020000040000fa
:0403100000030000e6
:020000040000fa
:0403140000030000e2
:020000040000fa
:0403180000030000de
:020000040000fa
:04031c0000030000da
:020000040000fa
:0403200000030000d6
:020000040000fa
:0403240000030000d2
:020000040000fa
:0403280000030000ce
:020000040000fa
:04032c0000030000ca
:020000040000fa
:0403300000030000c6
:020000040000fa
:0403340000030000c2
:020000040000fa
:0403380000030000be
:020000040000fa
:04033c0000030000ba
:020000040000fa
:0403400000030000b6
:020000040000fa
:0403440000030000b2
:020000040000fa
:0403480000030000ae
:020000040000fa
:04034c0000030000aa
:020000040000fa
:0403500000030000a6
:020000040000fa
:0403540000030000a2
:020000040000fa
:04035800000300009e
:020000040000fa
:04035c00000300009a
:020000040000fa
:040360000003000096
:020000040000fa
:040364000003000092
:020000040000fa
:100400004fc921000e7f24000e018800000000006b
:10041000000020000000e000020032000001200087
:100420002002880014000700770007000000e000a9
:1004300003003a00c0c5220001002000020037007e
:100440000000200001002000810f70000100320038
:1004500014000700000020000000e000020032004d
:100460000000020000000000cc2b02000000000091
:100470000040da000000fe004440a90060042000b3
:100480000000e0000300320000002000a00188000e
:100490004440a800000006008a1f78008b1f7800e7
:1004a0000000060091018800800478000000eb0045
:1004b0001a003700e284440032a0b4009905ba0063
:1004c000e284440032a0b4009906ba00e2844400f9
:1004d00032a0b4000006eb00476fde00fd07b2005b
:1004e000636ce10003003a00ebff07000000eb0043
:1004f0000a003700606ce10004003a00005deb0088
:100500008b05e900fdff3e00040037006168e10053
:10051000010032000086eb000b00070019c7ba008b
:100520001905ba000e04e00003003a000a00e000da
:10053000e0ff3a0000000600fe07b2009e018800be
:100540008a047800f5ff3700395dba008b05e900b1
:100550000c003200295dba008b05e900080032006a
:100560000c00e00003003a00e284440032a0b40032
:10057000f5ff370019ddba008b05e900faff3a00f4
:100580008904e800e184440032a0b40000000600c1
:10059000a22b0400000000005a0d0400000000001f
:1005a0003600f800809fbe00829fbe00849fbe0080
:1005b000869fbe003400f80000002000a0018800e3
:1005c0000000fa008460a900b30307000000e00007
:1005d00003003200e02b02000000000000000000d9
:1005e0000080fa003400f9004f03be004f02be0045
:1005f0004f01be004f00be003600f900004006006b
:100600000040da000000fe0000000500090037008d
:1006100030427800b1417800834f5200040032002c
:1006200010002000060031000080eb0000000600f2
:100630000201e9000200e000f5ff3a000000eb00d3
:10064000000006008001780002003700b1597800f0
:100650000201e9000200e000fcff3a000000060091
:100660008001780002003700815978000201e9001a
:0c0670000200e000fcff3a000000060061
:020000040000fa
:10067c00111100002222000033330000444400001a
:10068c0055550000666600007777000088880000ea
:10069c0099990000aaaa0000bbbb0000cccc0000ba
:1006ac00dddd0000eeee0000cecd0000acab0000b6
:1006bc0004000000494400004c45000000a5000067
:1006cc00a5a50000a5a50000a5a50000a5a50000f6
:1006dc00a5a50000a5a50000a5a50000a5a50000e6
:1006ec00a5a50000a50000006c6500006454000086
:0c06fc00617300006b00000004000000af
:020000040000fa
:100708001000fa0020079800310798004207980067
:100718005307980064079800750798006002200046
:1007280036110700000f78001e0078000000e00076
:100738000e0032004e009000000040002f1107000c
:10074800800078001e007800410898001e0078009c
:10075800400890000000e00004003a001e00780005
:10076800ad1107000000eb00000f78001e007800b4
:100778000000e000120032004e0090008000eb0004
:100788000001eb00821f78009e0378007e03900032
:10079800ee0290005e0290000001be00be009000d4
:1007a8002e0090000b0007008f87e9001e007800dc
:1007b800750007001000200010079800020037009d
:1007c8000080eb00100798001e0090000080fa00df
:1007d800000006001400fa0020079800310798006e
:1007e8004207980053079800640798007507980017
:1007f800060f9800170f98004e0090000000400068
:10080800800078001e0890004008900001017800e0
:10081800510a200090ff07001e089000c0089000b1
:10082800110798001e089000c00890004e01900023
:10083800f0ff2700000041000000400080804000d9
:100848001e089000710898003e0090000000e0002b
:10085800190032000000eb00000f78000d0037008f
:100868003e0090001e004000904078001e08900056
:100878001e0040007a004000014878003e009000c9
:100888001e004000104078000004e000050032001f
:100898001e0fe8001e007800e30f5000f0ff36003e
:1008a80001003700000000001e0890008040eb00a7
:1008b80051589800030037001e0890008040eb0054
:1008c800215898007e009000e40f50000200360086
:1008d80040002000700798001e089000fe0090005d
:1008e800310898001e0890000080e800f9120700ff
:1008f8001e0890006c004000f61207001e089000c9
:100908009e089000410098007e009000e5001000cd
:100918001e089000610098001e0890009e08900034
:10092800110898001e0890000002b0004200200044
:100938008000eb0048ff07001e0890004002b0004e
:10094800120020008000eb0043ff07006e019000ba
:10095800ae0090001e009000291207008000780069
:100968001e089000010878000e0890000000e000c2
:10097800030032000e0890009e08900001087800dd
:100988000080fa00000006000200fa00000f78005c
:100998009c120700404080000000e80040408800aa
:1009a800004080000000e00007003a009e00780048
:1009b8000140880040408000e10f50000d003a00df
:1009c800450407000b003700704080000000e0007d
:1009d80008003a0000408000b00890001e0078002f
:1009e80030089000808f500002003e009e00780082
:1009f80001408800b04080000000e800b040880056
:100a08001e007800b008900060408000808f500081
:100a1800030036001e00780030089000604088000f
:100a28001e81e8001e007800300890006a00b900b6
:100a38008000780000c32100008040008200780018
:100a4800ab1207007c120700704080000000e00035
:100a58000900320000408000b00890001e007800b5
:100a680030089000808f500003003100e02b020016
:100a780000000000000000000080fa0000000600ee
:100a88000400fa00100798005e1207001e0090008c
:100a98000000e00002003a0000408000010037003a
:100aa8001e009000000f78001e80e800e01207008a
:100ab8001e007800200890000000e00003003200cb
:100ac8009e0078006c804000d9120700b04080007a
:100ad8000000e800b0408800004080009e007800d8
:100ae800808f500008003a001e80e80080007800df
:100af80000c821007e120700304080000000e80096
:100b08003040880006003700404080000000e900bf
:100b1800404088001e007800230407002b040700cb
:100b280045120700704080000000e0000700320016
:100b3800004080009e007800808f500003003a003b
:100b4800e02b020000000000000000000080fa0016
:100b5800000006000c00fa004007980051079800b2
:100b68000000eb00000f7800c10107005140800031
:100b7800110798004e009000900078005e009000e9
:100b880000804000200798004e00900090007800f8
:100b98001e009000808f50000c0036004e00900020
:100ba800900078002e009000808f500012003600d0
:100bb800ae0090001e009000808f50000e0036009e
:100bc80010002000000f78000b0037004e00900046
:100bd800900078002e009000808f500004003e00a6
:100be800ae0090001e009000808f5000020036007a
:100bf80010002000000f78004e009000ae0090001a
:100c0800010878001e0078000000e00005003200ae
:100c1800ae0090001e009000008050008000eb00a5
:100c28009f06070098010700300798003e009000d3
:100c38000000e00003003a00e02b02000000000082
:100c4800000000001e0078000080fa000000060086
:100c58000400fa00100798000000eb00000f78006d
:100c68001e0090000000e00006003200800107002e
:100c78008000eb001e009000890607008201070033
:100c8800000f78001e0078000000e00003003a0022
:100c9800e02b020000000000000000000080fa00c5
:100ca800000006000600fa0020079800d51107008a
:100cb8002e0090000000e00002003a000040800092
:100cc800010037002e009000000f78001e00780009
:100cd800b008900011079800d71107001e00900077
:100ce8000080fa00000006000800fa0030079800ab
:100cf8000000eb00000f78003e0090000000e000cc
:100d080002003a0000408000010037003e009000d9
:100d1800100798001e009000b00890002107980066
:100d28002e0090000080fa00000006000c00fa0077
:100d380040079800510798000000eb00000f78006a
:100d48005e009000e40f50000200360040002000d2
:100d580050079800ab1107004e0090000000e0001b
:100d680002003a0000408000010037004e00900069
:100d7800100798001e009000b00890002107980006
:100d8800ae0090005e009000808f50004800320056
:100d9800de0090002e009000808f50000c0036007e
:100da800004080009e009000808f50000e003200ae
:100db80000408000b00890005e009000808f5000d6
:100dc80009003e0010002000000f780006003700e0
:100dd800004080009e009000808f500002003a0082
:100de80010002000000f78001e009000b00890004e
:100df800310798001e009000de009000310898002e
:100e08001e009000600090000000e0000400350023
:100e18005e009000e50010001e0090006100980040
:100e28001e009000500190003e0090006a00b9003a
:100e38008000780000c3210000804000800f51002e
:100e480015003a001e0090000080e800f811070025
:100e58001e009000b008900060408000808f500015
:100e6800030036001e0090003008900060408800a3
:100e78001e0090000081e8001e00900030089000dd
:100e88006a00b9008000780000c32100008040009b
:100e980082007800961107001e0078000000e0002c
:100ea80003003200e02b02000000000000000000f8
:100eb800611107000080fa00000006000600fa0031
:100ec800200798004f1107002e0090000000e00056
:100ed80002003a0000408000010037002e00900018
:100ee800100798001e0090000080e800d01107004d
:100ef8001e009000200890000000e000030032006f
:100f08001e0090006c004000c91107001e009000f0
:100f18000080e80080007800a0c821007411070054
:100f28000000eb00000f78000c0037009e009000d6
:100f3800420220001e00410061407800e14f50004d
:100f480005003a001e0090001e0040004002b0005c
:100f58008040eb00014878001e0fe8001e00780072
:100f68000000e000f1ff34003311070070408000fa
:100f78000000e000030032002211070013030700fd
:100f88002d110700004080009e009000808f5000c7
:100f98000e003a00704080000000e00004003200bb
:100fa800e02b0200000000000000000007003700ee
:100fb80051e4800040408000808f500002003a00d9
:100fc8000028ef0001003700a00107000080fa00a8
:100fd800000006000600fa00200798000000eb0059
:100fe800000f7800ae009000110798001e009000d6
:100ff800d0009000a0c82100808f50000b003a005c
:101008001e009000a008900060c72100808f50004b
:10101800060032001e009000200890000000e0004a
:1010280002003a0010002000000f78001e0078002f
:101038000080fa00000006000400fa00100798007b
:101048009e009000010f7800004080009e0078000c
:10105800808f5000250032001e0078000000e0005c
:1010680022003200e71007001e007800d9ff0700b1
:101078000000e0001c0032001e80e8006c11070030
:101088001e007800b008900060408000808f5000fb
:10109800030036001e007800300890006040880089
:1010a8001e81e8001e007800300890006a00b90030
:1010b8008000780000c32100008040008200780092
:1010c8000b1107001e007800b00890000040800057
:1010d80030089000808f500003003900e02b020098
:1010e8000000000000000000d31007000080fa0094
:1010f800000006000800fa00300798000000eb0026
:10110800000f7800be009000110798000000eb0067
:10111800200798001e009000aeff07000000e000c6
:1011280028003200e04080000000e00020003a0083
:101138001e009000b0089000004080003008900029
:10114800808f50000400390010002000000f780044
:1011580010002000904088001e0090000080e800e9
:10116800331107001e009000b00890006040800016
:10117800808f5000030036001e0090003008900059
:10118800604088001e0090000081e8001e0090006a
:10119800300890006a00b9008000780000c3210080
:1011a8000080400082007800d11007000500370059
:1011b8001e0090006c0040008000780060c721008d
:1011c800cb1007001e0078000080fa00000006001f
:1011d8000200fa00a58120000002eb008001eb006c
:1011e800e20b200001362800a0d5200044fd0700ae
:1011f800000f78001e007800e10f50000d003a0043
:1012080011028000f0f12f00008060000050a00063
:101218001002880000000000000000000080eb00c1
:10122800c040880010002000704088000a28ef00a5
:101238003b100700f01a84000080fa000000060046
:101248000000fa0011028000f0f12f000080600019
:101258000050a000100288000000000000000000fc
:101268000e28ef00501007000080fa00000006006a
:101278000000fa00e04080000000e800e04088003c
:101288000080fa00000006000600fa000000eb00eb
:10129800000f78000000eb001007980059100700b5
:1012a800e04080000000e900e0408800e040800065
:1012b8000000e00045003a00404080000000e000e7
:1012c8004200320021003700e0e380003000900047
:1012d800000f78009e0078006c804000d410070052
:1012e8001e80e800d21007001e007800b0089000a9
:1012f80060408000808f5000030036001e00780098
:1013080030089000604088001e81e8001e007800c8
:10131800300890006a00b9008000780000c32100fe
:101328000080400082007800711007001e007800dd
:10133800b00890000040800030089000808f500076
:10134800020039001000200090408800b0e38000bf
:101358000000e000dcff3a001e0078000000e0001a
:10136800010032001902070081408000210798001f
:101378002e0090000000e0000c003200440007003e
:101388000000e000020032001000200090408800b9
:101398002e0090000000e900200798002e00900021
:1013a8000000e000f5ff3a001028ef0090408000b0
:1013b8000000e0000500320010002000100798002f
:1013c800e02b020000000000000000001a100700d7
:1013d8001e0090000080fa00000006000200fa00db
:1013e8000810070051408000010f78001210070014
:1013f8001e0078000080fa00000006000400fa00d1
:101408000000eb00000f78005140800011079800a1
:101418001e0090000080fa00000006000000fa009c
:10142800404080000080fa00000006000400fa0036
:10143800100798001e0090000000e00002003a002b
:1014480000408000010037001e009000000f780067
:101458009e0078007a8040000080fa0000000600b4
:101468000400fa001007980081ff070081408000ff
:101478001e009000008040008040880082ff070026
:10148800000f78001e0078000080fa0000000600b7
:101498000a00fa000000eb00000f7800e04080002e
:1014a8000000e00063003a00504080000000e800bf
:1014b800100798009e009000514088001e00900080
:1014c8000000e0000a003a0011408000210798005f
:1014d8002040800010408800ae0090002140880025
:1014e800a04080000000e800a0408800b701070085
:1014f800c04080009e009000808f50003c00390062
:101508000100370000000000104080001000780043
:101518000000e00003003a000080eb00c0408800b3
:1015280033003700104080003000900030009000f9
:10153800300798003e009000900090004107980006
:101548009e0090004e009000808f500003003100f4
:10155800ce009000c1408800250037003e00900072
:101568000080e800321007003e009000200890003c
:101578000000e000030032003e0090006c004000d4
:101588002b1007003e009000b008900060408000db
:10159800808f5000030036003e0090003008900015
:1015a800604088003e0090000081e8003e00900006
:1015b800300890006a00b9008000780000c321005c
:1015c8000080400082007800c90f07003e009000ac
:1015d800b00890000040800030089000808f5000d4
:1015e800c8ff390010002000000f7800c6ff370040
:1015f80000408000300890006a00b9008000780040
:1016080000c321000080400010007800e10f500066
:101618000200360010002000000f78009040800083
:101628000000e0000600320010002000000f7800e3
:1016380003003700804080000000e80080408800f8
:101648001e0078000080fa00000006000600fa007c
:10165800e04080000000e00003003200100020009d
:1016680090408800390037001228ef0000408000c1
:1016780070089000100798001e0090007400500039
:101688001007980042012000513628001e009000e3
:10169800dcfb07000000e00004003200004080008e
:1016a800fa004000004080001110070061408000ef
:1016b800010f7800010037001e0fe9001e007800b6
:1016c8006a00b9008000780000c321000080400053
:1016d800100078000000e000f7ff32001e007800dc
:1016e8006a00b9008000780000c321000080400033
:1016f800200798002e0090001000900090009000a5
:101708002e009000110098002e009000900090008c
:101718002e00900064004000808f500005003a00c1
:101728002e00900010009000900090002e00900075
:10173800110098002e0090001000900030009000da
:10174800004088009e007800614088000080fa0010
:10175800000006000400fa00000f78001107980046
:10176800004080006c004000800078001e00780077
:101778007d0f0700110020001e009000c80307001d
:101788000080fa00000006000600fa00000f78004a
:101798001107980022079800004080009e009000e2
:1017a80001f0a00061009800004080006c0040003b
:1017b800800078001e0078004d0f070011002000ff
:1017c8002e009000b60307000080fa000000060013
:1017d8000600fa00200798002e00900030009000c4
:1017e80030009000100798001e0090006c00400028
:1017f8008f0f0700e04080000000e00016003a006c
:101808001e0090000080e800890f07001e0090006d
:10181800b008900060408000808f500003003600c0
:101828001e00900030089000604088001e00900064
:101838000081e8001e009000300890006a00b9009e
:101848008000780000c321000080400082007800fa
:10185800270f0700050037001e0090006c004000ad
:101868008000780060c72100210f07001e0090004b
:10187800b00890000040800030089000808f500031
:101888000500360010002000000f7800100020002e
:1018980090408800020037000000eb00000f78003d
:1018a8001e0078000080fa00000006000600fa001a
:1018b80010079800210798002e00900080007800fb
:1018c80001f0a0001e009000010878001e009000a2
:1018d80030009000000f78001e009000540f0700a1
:1018e8001e80e800520f07001e007800b008900024
:1018f80060408000808f5000030036001e00780092
:1019080030089000604088001e81e8001e007800c2
:10191800300890006a00b9008000780000c32100f8
:101928000080400082007800f10e07001e00780059
:10193800b00890000040800030089000808f500070
:101948000200360010002000904088000080fa0055
:10195800000006000200fa00000f7800a90e070038
:10196800a14080001e0078000108780051408000e6
:101978001e00780011009800af0e07000080fa00e2
:10198800000006000200fa00000f7800a140800065
:101998001e00780001087800514080001e00780081
:1019a800110098000080fa00000006000a00fa0002
:1019b8003007980041079800920e070051408000b8
:1019c800110798003e009000100090009e009000c3
:1019d80000805000200798004e009000100078000a
:1019e800e10f400003003a000000eb00000f780010
:1019f800250037003e00900090007800a04080004d
:101a0800808f50000b0032003e0090009000900044
:101a18001e009000808f500006003e00100020003d
:101a2800000f78004e0090008000eb00010878005d
:101a3800150037004e009000900078002e009000ae
:101a4800808f50000b0036004e0090009000780008
:101a58002e009000808050004e0090000108780011
:101a68003e009000c7ff07000000eb00000f780061
:101a7800050037004e0090008000eb000108780058
:101a880010002000000f78006b0e07001e00780081
:101a98000080fa00000006000000fa001000200094
:101aa800904088000080fa00000006000200fa005a
:101ab800000f78002600070080e18000e10f500049
:101ac80003003600e02b02000000000000000000c8
:101ad800040f0700f7ff37000200fa000000eb00d0
:101ae800000f7800070037001e0078006a00b90070
:101af8008000780000c32100008040005c0e0700d1
:101b08001e0fe8001e007800e40f5000f6ff3600b4
:101b180020c62100560e0700c0c62100540e07003b
:101b280060c72100520e070000c82100500e0700b0
:101b3800a0c821004e0e070020c6210010408800d2
:101b4800c0c62100204088000080fa00000006007e
:101b58000200fa000f0037002a0e070030e4800068
:101b680030009000000f78001e80e800b00e0700db
:101b7800404080000000e90040408800304080007c
:101b88000000e900304088002b0e07001e00780096
:101b980005000700304080000000e000eeff3a003a
:101ba8000080fa00000006000200fa00000f78002a
:101bb8001e00780040089000970c07001e0078006f
:101bc800950c07000080fa00000006000000fa00eb
:101bd80010408000100078000000e00003003a0088
:101be8000080eb00c04088000400370010408000ef
:101bf8003000900010007800c04088000080fa0093
:101c0800000006000200fa0001408000010f780081
:101c18001e0078000080fa00000006000200fa00aa
:101c280000408000e0009000010f78000040800034
:101c380001408000b1089000e58010006100980024
:101c48001e0078000080fa00000006000a00fa0072
:101c5800200798003107980042079800e90d07000f
:101c6800014080002e009000680040004200dd0026
:101c7800008040001000be00e00f5000e08f5800c8
:101c88000f003a00014080002e00900000804000c4
:101c98004002b00011c0b300014878004e00900027
:101ca8000000e00006003200110020004e00900005
:101cb8007b020700e02b020000000000000000008b
:101cc800dd0d0700cf0d0700014080002e009000b9
:101cd800680040004200dd0000804000301f7800ae
:101ce800201778001e00be00e00f5000e08f58005b
:101cf800150032003e0090000000e00008003200ad
:101d0800014080002e009000680040004200dd0085
:101d1800008140006000b8000089be000a0037005a
:101d2800034080000082eb008082eb003e0042000e
:101d3800ae804a002e019000680141004211dd008a
:101d4800028141000089be00014080002e00900001
:101d5800008040004002b0008040eb00014878005d
:101d6800b50d07001e00be000080fa000000060046
:101d78001000fa001007980022079800330798000f
:101d8800440798005507980061079800760798005f
:101d98009c0d0700014080001e0090004002b0002a
:101da80061407800e24f50002b0032000440800070
:101db8001e009000680040004200dd000000420064
:101dc8001001be002e009000be0090000080ea00c6
:101dd8008180ea008202780003017800800178009f
:101de8000100780083826200000061008000eb003f
:101df800c000dd00000020000001be006128b8001e
:101e080000017100818171001e009000680040008f
:101e18004200dd00000042000288be000140800050
:101e28001e009000008040004002b00011c0b300c6
:101e3800014878007e0090000000e00006003200b3
:101e4800110020007e00900015020700e02b020020
:101e58000000000000000000770d0700690d070072
:101e68006e0090000000e000080032000140800091
:101e78001e009000680040004200dd000080400025
:101e88001000be006e0190000089be000140800075
:101e98001e0090004002b00061407800e24f500000
:101ea800030032000000eb00000f78001e0037002e
:101eb800044080001e009000680040004200dd00e1
:101ec800000042001001be004e009000de009000ad
:101ed8000080ea008180ea0082027800030178002d
:101ee80080017800010078008382620000006100b0
:101ef8008000eb00c000dd00000020000001be00f3
:101f08006128b80000017100818171001e009000f5
:101f1800680040004200dd00000042000288be0068
:101f280010002000000f7800014080001e00900083
:101f3800008040004002b0008040eb00014878007b
:101f48003d0d07001e0078000080fa000000060022
:101f58001200fa00300798004107980052079800cd
:101f68006307980074079800050f98001000200078
:101f7800000f7800be00900011079800210d07009f
:101f88000e0890000000e000080032009e0090005b
:101f98004e009000680040004200dd0000804000d4
:101fa8001000be000e0990000089be009e0090003f
:101fb8004e0090004002b00061417800424798000e
:101fc8009e0090004e009000008040004002b0004b
:101fd80021c0b300014878007e009000e20f500055
:101fe8001d003200e20f500005003e000000e00036
:101ff80040003200e10f5000060032003e0037007a
:10200800e30f500023003200e40f50002a00320092
:10201800390037009e0090004e0090006800400094
:102028004200dd00008040001001be005e0090000c
:10203800ee00900000007100818071009e01900008
:102048004e019000680141004211dd00028141000b
:102058000089be00280037009e0090004e009000c6
:10206800680040004200dd00008040001000be0013
:1020780061004000e08048009e0190004e01900001
:10208800680141004211dd00028141000089be0063
:10209800190037009e0090004e0090006800400034
:1020a8004200dd00008040005e019000ee019000db
:1020b8000288be00100037004e409000e24f5000ea
:1020c800090032009e0090004e0090006800400019
:1020d8004200dd00008040005e019000ee019000ab
:1020e8000288be00040037000000eb00000f7800f3
:1020f80001003700000000004e409000e14f500002
:102108001e003a001e0090000080e800480d0700fd
:102118001e009000b008900060408000808f500042
:10212800030036001e0090003008900060408800d0
:102138001e0090000081e8001e009000300890000a
:102148006a00b9008000780000c3210000804000c8
:1021580082007800e60c07001e009000b00890008e
:102168000040800030089000808f50000300360047
:10217800e02b02000000000000000000ae0c070089
:102188001e0078000080fa00000006001600fa0021
:102198004007980051079800620798007307980055
:1021a800040f9800150f9800260f980010002000c3
:1021b800000f7800ce009000110798000000eb0097
:1021c800200798001e0890000000e0000800320078
:1021d8009e0090005e009000680040004200dd0014
:1021e800008040001000be001e0990000089be005b
:1021f8009e0090005e0090004002b00061417800af
:10220800624798009e0090005e00900000804000a9
:102218004002b00021c0b300014878000e089000c9
:10222800e20f50001d003200e20f500005003e0092
:102238000000e00040003200e10f500006003200cc
:102248003e003700e30f500023003200e40f500037
:102258002a003200390037009e0090005e0090008e
:10226800680040004200dd00008040001001be0010
:102278006e009000fe0090000000710081807100e7
:102288009e0190005e019000680141004211dd004e
:10229800028141000089be00280037009e0090009e
:1022a8005e009000680040004200dd0000804000b1
:1022b8001000be0061004000e08048009e019000d0
:1022c8005e019000680141004211dd000281410079
:1022d8000089be00190037009e0090005e00900043
:1022e800680040004200dd00008040006e01900060
:1022f800fe0190000288be00100037006e4090007a
:10230800e24f5000090032009e0090005e009000ed
:10231800680040004200dd00008040006e0190002f
:10232800fe0190000288be00040037000000eb00a8
:10233800000f780001003700000000006e40900098
:10234800e14f50002c003a00e04080000000e0001f
:1023580016003a001e0090000080e800b40c070048
:102368001e009000b008900060408000808f5000f0
:10237800030036001e00900030089000604088007e
:102388001e0090000081e8001e00900030089000b8
:102398006a00b9008000780000c321000080400076
:1023a80082007800520c0700050037001e009000dc
:1023b8006c0040008000780060c721004c0c0700ca
:1023c8001e009000b0089000004080003008900087
:1023d800808f5000080036002e0890000000e000b2
:1023e800030032002e089000110020000108780038
:1023f80010002000904088001e0078000080fa003d
:10240800000006000c00fa00300798004107980009
:1024180052079800be009000010f78000000eb0002
:10242800100798009e0078004e0090004002b0000f
:1024380061417800424798009e0078004e00900065
:10244800008040004002b00021c0b300014878007d
:102458009e0078004e009000680040004200dd00b9
:10246800008040001000be0061004000e08048008d
:102478009e0178004e019000680141004211dd0084
:10248800028141000089be004e409000e14f50009b
:102498002a003a00e04080000000e00014003a0002
:1024a8001e80e800620c07001e007800b00890004b
:1024b80060408000808f5000030036001e007800c6
:1024c80030089000604088001e81e8001e007800f7
:1024d800300890006a00b9008000780000c321002d
:1024e8000080400082007800010c070005003700da
:1024f8009e0078006c8040008000780060c7210052
:10250800fb0b07001e007800b00890000040800018
:1025180030089000808f5000080036005e00900060
:102528000000e000030032005e009000110020006f
:102538000108780010002000904088000080fa0010
:10254800000006000800fa002007980031079800ec
:102558002e0090000000e00002003a0000408000d9
:10256800010037002e00900010079800a50b070007
:102578009e0090003e0090004002b000614078004c
:10258800e24f500009003a009e0090003e00900083
:10259800008040004002b0008040eb000148780015
:1025a80010002000000f7800020037000000eb0048
:1025b800000f7800a00b07001e0078000080fa00ca
:1025c800000006000e00fa00300798004107980046
:1025d80052079800630798003e0090000000e00052
:1025e80002003a0000408000010037003e009000e1
:1025f800000f7800830b07009e0078004e009000c3
:10260800680040004200dd00008040001001be006c
:1026180012079800230798009e0078004e0090004b
:10262800680040004200dd00008040001001be004c
:102638005e009000ee0090000080ea008180ea00d1
:102648000202780003017800800178000100780018
:1026580003026200000061008000eb00c000dd00a2
:10266800000020000001be006120b80000017100d8
:10267800818171009e0078004e0090006800400043
:102688004200dd00008040000288be006a0b07009f
:102698001e009000ae0090000080fa0000000600c6
:1026a8000800fa0020079800310798005140800080
:1026b800010f7800004080000080e800dc0b070074
:1026c8002e009000e10f400009003a003e00900003
:1026d8000000e00006003200004080000080e800b2
:1026e80080007800a0c82100810b0700180037007f
:1026f8002e0090001e004000100798000040800047
:102708009e009000110098001e0090009e0f50003f
:1027180005003100004080008080e80020408000f3
:10272800910b07000a003700004080008080e80015
:10273800104080008c0b0700c04080009e00900075
:10274800808f5000020031009e009000c140880038
:102758000080fa00000006000600fa001007980042
:10276800210798009e009000010f7800250b0700b4
:102778001e007800100178001e007800f008900014
:102788001e007800001090000088b9000000780052
:10279800800041001e007800210098001e0078008b
:1027a8008000eb00610898001e0078009000780017
:1027b8001e007800110098001e00780010017800b3
:1027c8001e007800700890008000e9001e00780064
:1027d800001090000088b9000000780080004100d7
:1027e8001e007800310098001e00780080c0eb00c1
:1027f800216098001e00780080c0eb0031609800ce
:102808002e0090000000e0000d003a001e00780045
:10281800400090000000e0000f0032009e007800a9
:1028280068804000eafb07000000e0000a00320070
:10283800e02b020000000000000000000600370046
:102848009e00780068804000090b07009e00780011
:1028580072804000060b0700f70a070010002000ee
:102868000080fa00000006000c00fa00300798000b
:1028780041079800224f9800be0090004e0090003b
:102888000088b90000007800000f7800410220009d
:102898001e804000d9080700100798001e0090000d
:1028a8000000e0000b0032009e0090002107980015
:1028b8002e0090004002b000200798001e029000f1
:1028c800ae4990002e019000ce0090003e0090008e
:1028d800030007001e0090000080fa0000000600b8
:1028e8000a00fa00000f78001107980022079800e4
:1028f80063479800440798001e0090000000e0001d
:1029080004003a00ce0090004e00900001087800c4
:1029180003003700ae0090004e00900001087800d8
:102928004e0090009e007800710898004e009000bc
:102938009e00900001109800110020004e009000a9
:1029480085ff07000080fa00000006001200fa0068
:10295800500798006107980072079800030f9800c5
:102968000000eb00000f7800de00900011079800cf
:102978000100370000000000a20a07001e009000b6
:10298800e00890001e00900070089000808f5000b2
:10299800030039000e089000e20f50001b003a00b7
:1029a8000e099000ee0090001e00900089020700ba
:1029b800200798001e009000100890000000e0001a
:1029c800090032001e0090007200400080fb0700e2
:1029d8000000e0000a003200e02b020000000000c6
:1029e80000000000060037002e0090000000e00004
:1029f80003003200e02b020000000000000000008d
:102a08008d0a0700100020003d0037007e0090006e
:102a18000000e00003003a00870a07000000eb000e
:102a2800370037001e0078000000e00004003a007c
:102a380066004700d3fb070010002000000f780055
:102a48007d0a07000afa07006e0a07001e009000b8
:102a580020609000e14f400003003a001e00900003
:102a68008040eb00216098001e00900030609000cc
:102a7800e14f400003003a001e0090008040eb0048
:102a8800316098006c0a0700ee00470066004700b6
:102a9800c6fb07000000e00015003a001e00900089
:102aa800190307000000e0000d003200fe0090004e
:102ab8001e0090006800400026fb07001e009000e2
:102ac800b9020700f0f907000000e000a9ff3a008a
:102ad800e02b02000000000000000000a6ff370005
:102ae8001e009000b0020700e7f90700a2ff3700b8
:102af8001e009000ac020700e3f907000000eb009d
:102b08000080fa00000006001200fa005007980042
:102b18006107980072079800030f9800de00900084
:102b2800110798000000eb00200798001e00900095
:102b3800e00890001e00900070089000808f500000
:102b4800030039000e089000e20f500025003a00fb
:102b58001e009000b0609000614798001e00900031
:102b6800e0089000410798000e099000ee009000e0
:102b78001e009000170207006e409000e14f4000d1
:102b880010003a001e009000100890000000e000bd
:102b9800110032001e009000720040000cfb07007c
:102ba8000000e0000c0032007e0090000000e00011
:102bb800090032007e009000110020000108780012
:102bc800050037006e4090000040e8008040780023
:102bd8001e0090003160980010002000000f78005f
:102be800020037000000eb00000f78001e0078009c
:102bf8000080fa00000006000e00fa005007980056
:102c080061079800de009000110798000000eb00b3
:102c1800200798001e009000e008900031079800f7
:102c28001e009000f00890003e009000808f500039
:102c3800220036001e009000b0609000014f9800fe
:102c48003e0090008000e8001e0090006108980097
:102c58000e489000e14f400010003a001e0090001e
:102c6800100890000000e000110032001e009000e3
:102c780072004000d6fa07000000e0000c003200a5
:102c88006e0090000000e000090032006e00900025
:102c98001100200001087800050037000e48900058
:102ca8000040e800804078001e00900031609800e5
:102cb80010002000000f7800020037000000eb0031
:102cc800000f78001e0078000080fa00000006005f
:102cd8001000fa00500798006107980072079800e2
:102ce8000000eb00000f7800de009000110798004c
:102cf800030037000000000001003700000000005a
:102d0800c00907001e009000e00890002107980005
:102d18002e0090000000e00016003200ee00900047
:102d28001e009000fe0107002e0090008000e900c0
:102d38001e009000610898001e009000400090005e
:102d48000000e000080032001e009000680040000b
:102d58009ffa07000000e00003003200e02b0200a9
:102d68000000000000000000b30907001000200068
:102d7800410037007e0090000000e00003003a00a8
:102d8800ad0907000000eb003b0037001e0078008b
:102d98000000e00004003a0066004700f9fa070066
:102da80010002000000f7800a309070030f9070081
:102db800940907001e00900020609000e14f400039
:102dc80003003a001e0090008040eb00216098004c
:102dd8001e00900030609000e14f400003003a0070
:102de8001e0090008040eb003160980092090700b7
:102df800ee00470066004700ecfa07000000e0001c
:102e080015003a001e0090001f0207000000e000b5
:102e18000d003200fe0090001e009000720040007d
:102e28004cfa07001e009000df01070016f90700a2
:102e38000000e000afff3a00e02b020000000000b5
:102e480000000000aeff37001e009000d60107000a
:102e58000df90700aaff37001e009000d2010700f5
:102e680009f907001e009000070207000000e000b3
:102e7800a2ff32000000eb000080fa00000006000c
:102e88000e00fa0050079800610798000000eb0058
:102e9800000f7800de00900011079800030037004b
:102ea800000000000100370000000000550907007d
:102eb8001e009000e0089000210798002e00900066
:102ec8000000e000130032002e0090008000e900ae
:102ed8001e009000610898001e00900040009000bd
:102ee8000000e000080032001e009000680040006a
:102ef80037fa07000000e00003003200e02b020070
:102f080000000000000000004b090700100020002e
:102f1800410037006e0090000000e00003003a0016
:102f2800450907000000eb003b0037001e00780051
:102f38000000e00004003a006600470091fa07002c
:102f480010002000000f78003b090700c8f80700b0
:102f58002c0907001e00900020609000e14f4000ff
:102f680003003a001e0090008040eb0021609800aa
:102f78001e00900030609000e14f400003003a00ce
:102f88001e0090008040eb00316098002a0907007d
:102f9800ec0047006600470084fa07000000e000e4
:102fa80015003a001e009000b70107000000e0007d
:102fb8000d003200ee0090001e00900072004000ec
:102fc800e4f907001e00900077010700aef807003b
:102fd8000000e000b2ff3a00e02b02000000000011
:102fe80000000000b1ff37001e0090006e010700ce
:102ff800a5f80700adff37001e0090006a01070022
:10300800a1f807001e0090009f0107000000e000e3
:10301800a5ff32000000eb000080fa000000060067
:103028001200fa006007980071079800020f9800d4
:103038000000eb00000f7800ee00900011079800e8
:103048000300370000000000010037000000000006
:10305800ec0807001e009000e00890002107980087
:103068002e0090000000e000180032001e009000c2
:10307800b000900031079800fe0090001e009000fc
:10308800270107001e009000be0090003100980044
:103098001e009000100890000000e00008003200b8
:1030a8001e00900072004000c9f907000000e0000f
:1030b80003003200e02b02000000000000000000c6
:1030c800dd08070010002000410037000e089000be
:1030d8000000e00003003a00d70807000000eb00fa
:1030e8003b0037001e0078000000e00004003a00b2
:1030f8006800470023fa070010002000000f78003e
:10310800cd0807005af80700be0807001e00900007
:1031180020609000e14f400003003a001e0090003c
:103128008040eb00216098001e0090003060900005
:10313800e14f400003003a001e0090008040eb0081
:1031480031609800bc080700f0004700680047009d
:1031580016fa07000000e00015003a001e00900073
:10316800490107000000e0000d0032008e089000c1
:103178001e0090007200400076f907001e009000c3
:103188000901070040f807000000e000adff3a0021
:10319800e02b02000000000000000000acff370038
:1031a8001e0090000001070037f80700a8ff37004d
:1031b8001e009000fc00070033f807001e00900076
:1031c800310107000000e000a0ff32000000eb0022
:1031d8000080fa00000006001000fa00500798006e
:1031e8006107980072079800de00900011079800a8
:1031f8000000eb00200798001e009000e0089000f7
:10320800310798003e0090000000e00025003200e1
:103218001e009000a0609000014f9800ee00900002
:103228001e009000be0007003e0090008000e900ec
:103238001e009000610898000e489000e14f400081
:1032480010003a001e009000400090000000e000ce
:10325800110032001e009000680040005cf9070071
:103268000000e0000c0032007e0090000000e0004a
:10327800090032007e00900011002000010878004b
:10328800050037000e4890000040e80080407800b4
:103298001e0090002160980010002000000f7800a8
:1032a800020037000000eb00000f78001e007800d5
:1032b8000080fa00000006000c00fa0040079800a1
:1032c80051079800ce009000110798000000eb000d
:1032d800200798001e009000600890000000e000a1
:1032e8000c0032001e009000b000900031079800da
:1032f800de0090001e009000890007001e0090006c
:10330800be0090003100980010002000000f7800e7
:10331800020037000000eb00000f78001e00780064
:103328000080fa00000006000400fa001007980068
:10333800340807001e009000e0089000010f780094
:103348003d0807001e0078000080fa000000060013
:103358000600fa0020079800ae009000010f7800e0
:10336800280807001e007800f00890001e0078006a
:103378006008900000805000100798002e08070091
:103388001e0090000080fa00000006000600fa0007
:1033980020079800ae009000010f78001e0078000a
:1033a800e0089000110798001e0090000080fa00c5
:1033b800000006000400fa00100798009e00900024
:1033c800010f78001e007800930607000080fa00bd
:1033d800000006000a00fa0020079800310798004c
:1033e800420798000000eb00100798002e0090009c
:1033f800e0089000010f78002e0090000010900067
:103408000000e000400032004e0090000000e000a4
:1034180019003a002e009000801090002e009000b5
:103428001000900001017800be00900083f40700ae
:103438002e009000900090002e0090000010900048
:10344800808040002e009000110098002e0090000f
:10345800900090002e00900020009000808f500077
:10346800290039002e009000900078002e0090006e
:1034780011009800240037002e0090008010900062
:103488002e0090003000900001017800be009000ee
:103498006af407002e009000b00090002e00900003
:1034a800001090000000ea00808040002e0090008c
:1034b800310098002e009000b00090002e0090007f
:1034c80010007800808f5000080031002e00900016
:1034d800a00090002e009000001090000000ea006c
:1034e800808040002e009000310098004e0090002f
:1034f800e20f500004003a001e0078000000e000cf
:10350800010032001e0fe9009e00e8002e00900026
:10351800610898001e0090000080fa000000060074
:103528000400fa00000f7800110798001e007800c8
:10353800001090000000e000190032001e00780022
:10354800b00090001e0078000010900080804000bd
:103558001e007800310098001e007800b00090002e
:103568001e00780020009000808f50000400390071
:103578001e007800900078001e0078003100980046
:103588001e007800801090001e0078003000900027
:1035980001017800800078001e00900027f40700e1
:1035a8000080fa00000006000400fa0010079800e6
:1035b800940707001e009000b0609000014f78004b
:1035c8000b0037001e009000100890000000e0007b
:1035d8000b0032001e009000720040007cf80700cb
:1035e8000000e000010032002bf907001e4fe9003f
:1035f8001e4078000004e000f2ff3c0001003700a4
:10360800000000001e00900080c0eb0031609800b0
:10361800890707007b0707001e009000a060900044
:10362800114798000d0037001e00900040009000e0
:103638000000e0000d0032001e009000680040000d
:1036480063f807000000e0000100320012f90700eb
:103658001e4090000040e900104798001e4090006e
:103668000004e000f0ff3c0001003700000000000b
:103678001e00900080c0eb00216098006e070700d4
:103688000080fa00000006000400fa001007980005
:103698005c0707001e009000600890000000e00032
:1036a80003003a0010002000000f780002003700e5
:1036b8000000eb00000f78005f0707001e0078008d
:1036c8000080fa00000006000600fa0020079800b3
:1036d800ae009000110798001e009000600890004e
:1036e8000000e00003003a0010002000000f7800fe
:1036f800020037000000eb00000f78001e00780081
:103708000080fa00000006000400fa001007980084
:103718003c0707001e009000e00890001e00900083
:1037280070089000808f500003003a0010002000bd
:10373800000f7800020037000000eb00000f78004f
:103748003d0707001e0078000080fa000000060010
:103758000600fa0020079800ae00900011079800b4
:103768001e009000e00890001e0090007008900075
:10377800808f500003003a0010002000000f7800ee
:10378800020037000000eb00000f78001e007800f0
:103798000080fa00000006000a00fa0020079800de
:1037a80031079800420798004e009000e10f500042
:1037b80003003a0010c0b300204798000200370009
:1037c8000040eb00204798003e0090000000e00019
:1037d80002003a0010002000300798002e009000e8
:1037e800f10040002e009000808f50000800360045
:1037f8002e0090000000e800200798002e0090009e
:1038080070004000fd040700000f78000200370038
:103818000000eb00000f78001e0078000000e000b8
:10382800070032001e017800f00041001e007800f9
:103838002e429000be0190002e0190003203070036
:103848001e0078000080fa00000006000400fa005c
:10385800100798009e009000010f78001e00780065
:10386800604890000080fb00620060000000e000fb
:1038780003003a001e0078006705070004003700bf
:10388800020120008000eb001e00780072f30700a0
:103898000080fa00000006000600fa0020079800e1
:1038a800ae009000110798000000eb00000f7800b0
:1038b800d40607001e009000400090000000e000c1
:1038c80014003a001e009000500090000000e00034
:1038d80010003a001e009000e04990001e00900081
:1038e800300190001e009000a00090001e00900083
:1038f800600090000342780082017800010178009e
:10390800800078001e009000ff02070010002000d1
:10391800000f7800c80607001e0078000080fa0033
:10392800000006000800fa002007980031079800f8
:10393800ae009000110798003e0090000000e000e3
:1039480002003a0010002000300798001e00900086
:10395800a00090003e009000808f500006003900c3
:103968001e009000be00900031009800100020005a
:10397800000f7800020037000000eb00000f78000d
:103988001e0078000080fa00000006000600fa0019
:1039980020079800ae009000110798001e009000c4
:1039a800a00090001e00900010007800008f4000da
:1039b8001e009000100090001e0f10001e0fe9005e
:1039c8001e009000200090009e0f500003003e0053
:1039d8001e009000200090001e0f10001e007800ae
:1039e8000080fa00000006000600fa002007980090
:1039f800ae009000010f78001e007800ae020700ac
:103a0800100798001e0090000080fa0000000600d1
:103a18001600fa0070079800010f9800120f98001e
:103a2800230f9800fe009000210798000000eb008b
:103a3800000f78009e089000110798002e00900053
:103a4800200090000000e900300798002e00900048
:103a5800604890000080fb00610060000040780032
:103a68000004e0000a0032001e0090000080e80018
:103a7800100798009e0090003e009000808f500034
:103a8800090036000000eb00200f98000600370000
:103a98009e0090003e009000808f5000020036008b
:103aa800be009000110798002e0890000000e0006a
:103ab800230032006a004700a6f7070051060700f6
:103ac8002e009000b1ff0700000f78001e00900044
:103ad8009e007800808f5000170031008000eb00b6
:103ae8000000eb0097fa070046f80700ae009000c8
:103af800d0009800500607002e08900000037800b8
:103b08008000eb006022b8006011b8000000eb00f4
:103b180097f807002e0090008000eb0051009800f5
:103b2800f40047006a004700a0f707000000e00023
:103b3800e2ff3200020037003f06070000000000e5
:103b48001e0078000000e00003003a002e009000fc
:103b58008eff0700000f78001e0290009e0178007b
:103b68001e0990008e0890002e0090005500070056
:103b7800400798004e0090000000e0001600320058
:103b88002e0090004c020700ae009000b10090009b
:103b9800810f500010003900b5f507002e00900085
:103ba800400090000000e0000a0032002e00900063
:103bb800400090008002eb000002eb006011b800aa
:103bc8008000eb00e2f807002e0090008000eb0078
:103bd80041009800acf507004e0090000080fa0004
:103be800000006001200fa005007980061079800cc
:103bf80072079800030f9800de00900011079800e4
:103c0800fe009000010f78001e00900060489000b0
:103c18000080fb0061006000004078000004e000c4
:103c2800010032001e8fe8001e00900057ff0700b9
:103c3800200798001e027800ae0190007e019000d7
:103c4800ee0090001e0090001e000700300798004c
:103c58003e0090000000e000170032001e009000b7
:103c6800150207009e009000b1009000810f5000df
:103c7800110039000000eb00400798001e0090007a
:103c8800400090000000e0000b0032001e00900091
:103c9800400090000e0b90008002eb000002eb0049
:103ca8006011b8008000eb0038f907001e00900092
:103cb8008000eb00410098003e0090000080fa0070
:103cc800000006000e00fa0020079800310798004f
:103cd8004207980053079800640798005e00900018
:103ce8000000e00003003a000000eb00000f78003d
:103cf8001d0037002e009000604890000080fb00f7
:103d0800610060000000e00009003a001000200097
:103d1800000f7800ce0090005e009000810f5000e8
:103d28000100360001007800400798000e003700b7
:103d3800de0090006e009000808f5000080039006f
:103d480010002000000f78006800470022002000c3
:103d5800800078002e0090006c01070002003700f8
:103d68000000eb00000f78001e0078000000e00063
:103d780008003200ce0090003e009000010178005b
:103d8800800078002e00900060010700100798005e
:103d9800020037000000eb00100798001e0090009a
:103da8000080fa00000006001000fa0040079800a2
:103db800510798006207980073079800ce0090009a
:103dc800310798000000eb00000f78003e009000db
:103dd800604890000080fb006100600000407800af
:103de8000004e000030032002000200020079800b3
:103df800020037000000eb00200798007e009000ca
:103e08000000e000200032007e0507003e00900020
:103e1800a9010700100798009e0090002e0090004e
:103e2800808f500006003e008000eb000000eb0091
:103e3800c4f9070073f70700be009000c00098009f
:103e48007d0507009e0090002e009000808f500096
:103e580010003e007e0390008000eb006022b80056
:103e68006011b8000000eb00c1f707003e009000a9
:103e78008000eb00410098003e0090008e01070092
:103e880010079800030037003e0090008a010700e1
:103e9800100798009e0090002e009000808f500020
:103ea8001a0036002e0290009e0190006e019000cc
:103eb800de0090003e00900079000700000f7800b7
:103ec8001e0078000000e00010003200e8f407004f
:103ed8003e009000500090000000e0000a00320010
:103ee8003e009000500090008002eb000002eb00c2
:103ef8006011b8008000eb0015f807003e00900044
:103f08008000eb0051009800dff407001e007800e5
:103f18000080fa00000006000c00fa005007980024
:103f2800de009000110798001e0090006048900085
:103f38000080fb0061006000004078000004e000a1
:103f4800180032001e0090005b010700200798004f
:103f58002e009000e20f50000f0036001e00900067
:103f6800900078003107980068004700ae01900083
:103f780022002000800078001e0090001401070035
:103f8800ce009000010f78001e009000be00900047
:103f980001087800050037000000eb00000f7800ea
:103fa800020037000000eb00000f78001e007800c8
:103fb8000080fa00000006001200fa00500798007e
:103fc8006107980072079800030f9800de009000c0
:103fd800210798000000eb00000f78002e009000e9
:103fe800604890000080fb0061006000004078009d
:103ff8000004e000030032002000200010079800b1
:10400800020037000000eb00100798002e00900017
:104018002901070030079800be0090001e0090009c
:10402800808f50001b0036001e029000be019000d9
:104038007e019000ee0090002e009000180007000e
:10404800000f78001e0078000000e0001100320028
:104058000000eb00400798002e00900050009000f0
:104068000000e0000b0032002e009000500090008d
:104078000e0b90008002eb000002eb006011b8000c
:104088008000eb0041f807002e0090008000eb0054
:10409800510098001e0078000080fa000000060019
:1040a8001200fa004007980051079800620798002c
:1040b80073079800040f98000e0890000000e000b5
:1040c800190032004e009000900078001107980007
:1040d80066004700fe0190000e09900080007800fd
:1040e8004e009000ba000700be009000010f780053
:1040f800fe0090000e0890000080500070079800a5
:104108006e0090009e007800808f500008003600f6
:104118004e0090009e009000010878000000eb001f
:10412800000f780002003700ee009000010f7800c1
:104138005e009000fe0190001e017800800078006b
:104148004e009000a2000700200798002e00900063
:104158000080fa00000006000800fa003007980006
:10416800be009000110798001e0090009000780093
:10417800210798001e009000900090002e009000eb
:10418800808f500003003a0010002000000f7800d4
:10419800020037000000eb00000f78001e007800d6
:1041a8000080fa00000006000800fa0030079800b6
:1041b800be009000210798002e00900060489000f3
:1041c8000080fb0061006000004078000004e0000f
:1041d800030032002000200010079800020037007a
:1041e8000000eb00100798003e009000e7fd070074
:1041f8009e009000810f500003003e001000200038
:10420800000f7800020037000000eb00000f780074
:104218001e0078000080fa00000006000a00fa007c
:104228003007980041079800be00900011079800d9
:104238000000eb00200798001e009000400090004e
:104248000000e0000e0032001e00900040009000c8
:104258004e0390008002eb000002eb006011b800f2
:104268008000eb00c9f707001e0090008000eb00fb
:104278004100980010002000000f7800020037006d
:104288000000eb00000f78001e0078000080fa00a4
:10429800000006000a00fa0030079800410798005d
:1042a800be009000110798000000eb00200798005e
:1042b8001e009000500090000000e0000e00320048
:1042c8001e009000500090004e0390008002eb000a
:1042d8000002eb006011b8008000eb00abf70700ac
:1042e8001e0090008000eb00510098001000200094
:1042f800000f7800020037000000eb00000f780084
:104308001e0078000080fa00000006000a00fa008b
:104318002007980031079800420798002e00900067
:1043280090009000010f78002e009000200090006f
:104338001e005000ce009000810f50000100360092
:1043480001007800100798002e009000600090008f
:104358001e0040001e019000be009000b7f007004c
:10436800ce0090001e009000808f5000090036009b
:10437800ce0090001e00900000815000be0090000a
:104388001e009000808040002e0090006000900089
:10439800aaf007004e0090001e0f40002e0090006b
:1043a800200090009e0f500003003e002e00900059
:1043b800200090001e0f10002e0090009e00780034
:1043c800110098004e0090000080fa0000000600de
:1043d8000e00fa003007980041079800520798002d
:1043e80063079800ee0090005e009000810f500077
:1043f8000100360001007800100798001e009000a8
:104408000000e000290032003e009000100f780004
:104418003e009000200090001e0050009e0090007a
:10442800810f500001003600010078002007980035
:104438003e009000600090001e0040002e01900099
:10444800800078004e0090007cf007009e009000ed
:104458002e009000808f5000090036009e009000ca
:104468002e009000008150003e009000e000900077
:10447800ce0190002e009000008041006ff00700f0
:104488001e0090001e0f40003e009000200090008b
:104498009e0f500003003e003e0090002000900058
:1044a8001e0f10003e0090001e0878001e009000ad
:1044b8000080fa00000006000400fa0010079800c7
:1044c8001e009000a00090001e00900010009000b8
:1044d800008f40001e009000100078001e0f100092
:1044e8001e009000200090009e0f500003003e0028
:1044f8001e009000200090001e0f10001e00780083
:104508000080fa00000006000a00fa00000f780098
:10451800110798002207980033079800044f980065
:10452800020120008000eb001e0078004af007001e
:104538001e0078009e009000610098001e00780020
:10454800ae009000210098001e007800be00900088
:10455800310098001e0078008e489000614898004d
:104568000080fa00000006000200fa00c0002000e7
:10457800a2010700000f78001e0078000000e0008c
:10458800050032001e0078008000eb00010878006a
:104598001e80e800b60307001e0078000080fa00bd
:1045a800000006001200fa00500798006107980002
:1045b80072079800030f9800de009000110798001a
:1045c8000000eb002007980029f307001e00900068
:1045d8009000780031079800ee0090005e0090008f
:1045e800de000700be0090006e00900081007000a1
:1045f8007e009000808060007e009000808f5000d8
:104608000d003a00be0090006e009000008f700010
:104618001e009000900078007e0090000080ea0064
:10462800808060001e009000010878000000eb0008
:10463800000f9800110037000e0890000000e000fd
:104648000a003200fe009000005020008100700037
:104658001e0090000080e8000e0990004af4070050
:104668000000eb00000f7800040037001e009000e7
:10467800100f7800100020002007980002f30700b0
:10468800400798000e0890000000e000200032006b
:104698004e0090000000e00003003a00e02b02000a
:1046a80000000000000000005cf50700000f780023
:1046b800002020001e0060000000e00012003a0008
:1046c800500307001e009000100f78007e00900035
:1046d8009e0060007e009000808f500007003a0026
:1046e8001e009000900078007e0090000080ea0094
:1046f800808060001e009000010878004e030700cb
:104708001000200020079800f00f20001e0f600006
:104718001e0078000080fa00000006001800fa0069
:1047280070079800010f9800120f9800230f980047
:10473800340f9800fe009000210798000000eb005d
:10474800100798000000eb0030079800c8f2070037
:104758002e00900090007800410798002e099000e4
:104768008e0890004e00900008010700500798003e
:104778005e0090000000e0000f003200ce009000c4
:10478800010f78000000eb00300f98001e08900021
:104798000000e000250032002e0090009000780014
:1047a8000e0890000080ea00808060002e009000d3
:1047b800010878001d0037003e0890000000e00066
:1047c80005003a00ce009000010f7800100020008c
:1047d80030079800150037001e0890000000e00020
:1047e800030032001e0090000080a000100798000f
:1047f8002e0890000000e000030032001e00900028
:1048080000a0a000100798008e0890001e009000dd
:10481800810070002e0090000080e8003e099000a2
:10482800d9f307000000eb00000f780096f20700ac
:10483800600798003e0890000000e0002400320065
:104848006e0090000000e00003003a00e02b020038
:104858000000000000000000f0f40700000f7800de
:10486800002020001e0060000000e00016003a0052
:10487800e40207002e009000100f78002e09900027
:104888008e0890001e007800c00007000000e000bd
:104898000a0032001e0890000000e0000700320005
:1048a8002e009000900078000e0890000080ea002a
:1048b800808060002e009000010878001000200021
:1048c80030079800dc020700f00f20001e0f600080
:1048d8001e0078000080fa00000006000800fa00b8
:1048e8002007980031079800ae009000010f78006b
:1048f800c40207001e007800900078001107980095
:104908001e007800900078003e0090000080ea00c9
:10491800808060001e00780001087800c602070049
:104928001e0090000080fa00000006000800fa004f
:1049380030079800be009000010f78000000eb00df
:10494800100798001e007800900078002107980052
:104958002e0090000080fa00000006001600fa0001
:10496800100f9800210f98000000eb001007980026
:104978009e089000310798000000eb00200798007f
:104988003e0090000080e800400798004e0090002c
:10499800640040005007980035f207004e00900070
:1049a800b0009000010f78003e0090009000780061
:1049b8002e089000810070003e00900001087800e9
:1049c8003b0037001e0078009000900061079800b7
:1049d8001e00780090007800710798000000eb0036
:1049e80020079800fe00900000f02f000080600073
:1049f800000f9800fe009000f00f2000008060007b
:104a0800700798008e089000004020000080600029
:104a18000000e00009003a003e0090009000780095
:104a28007e009000008060000000e0000c00320072
:104a38001000200020079800090037003e00900071
:104a4800900078007e009000808060007e009000da
:104a5800808f500002003a001000200020079800c4
:104a68002e0090000000e0000f0032008e08900039
:104a780000102000008060000000e0000400320008
:104a88009e0090007e0090000100700010079800c2
:104a98003e009000100078000090a0008000780090
:104aa8001e00780081f30700ee009000010f7800e7
:104ab8005e0090009e007800808f5000c1ff3a0091
:104ac8003e009000900078001e0090000080ea00f0
:104ad800808060003e00900001087800eaf107003d
:104ae8003e009000100078000080fa0000000600e8
:104af8000600fa0020079800ae009000010f780029
:104b08001e80e80010079800d9f10700040037005c
:104b18001e009000300090000120200063f3070081
:104b28001e009000100078000000e000f8ff3a0036
:104b38001e007800b8000700d3f107000080fa00d3
:104b4800000006000600fa00000f7800120798001f
:104b5800230798009e0090001e0078007fff070042
:104b68000080fa00000006000600fa00000f780036
:104b780012079800230798009e0090001e007800f6
:104b880056ff07000080fa00000006000800fa003f
:104b98001007980021079800320798000000eb00e2
:104ba800000f78003e0090000000e00008003a0086
:104bb8009e0090002e009000008060000000e00041
:104bc8000b00320010002000000f780008003700aa
:104bd8009e0090002e009000808060002e009000c3
:104be800808f500002003a0010002000000f78006b
:104bf8001e0078000080fa00000006000a00fa0093
:104c0800400798000000eb002007980098f1070083
:104c1800104180000000e00001003a00b4000700e5
:104c2800614180004e009000008060000000e000bc
:104c380075003a004e0090000000e0001d003200b0
:104c4800111c84004e009000808040004e009000af
:104c5800808f500017003600101c8400ce00900092
:104c680000804000400798004e00900061006000fe
:104c7800004078000004e000100032004e00900070
:104c88000000a1008080e8004e009000808f500056
:104c9800050036004e0090000000a1000080e800ea
:104ca80040079800050037000000eb004007980017
:104cb800020037000000eb00400798004e0090000b
:104cc8000000e0005000320020418000ce0090003b
:104cd800808f50004c003e00e081200010079800b3
:104ce800f1408000010f7800040037009e00780032
:104cf800110798001e007800100f78001e00780039
:104d0800900090004e009000808f50000400310009
:104d18001e007800100078000000e000f3ff3a0061
:104d2800104180009e007800808f500036003200cd
:104d38001e00900090007800101c84000080400045
:104d4800200798001e007800900078001e00900050
:104d5800010878001e007800900090004e00900036
:104d680080805000101c840000004000808f50009c
:104d78000e0036004e0090001e00400030079800dc
:104d88001e007800900090004e0090008080500037
:104d98003e009000110098001e007800ce009000a0
:104da800110098003e009000880007002141800013
:104db8001e007800100090000080500020418800fc
:104dc8002141800030418000808f50000200310076
:104dd80020418000304188001e007800900090003b
:104de80060418000810070001e007800110098006a
:104df8001e0078008000eb00010878004041800028
:104e08000000e800404188001ff107002e009000d4
:104e18000080fa00000006000600fa00200798004b
:104e2800ae009000010f78002e0090000000e00016
:104e380022003200101c84000000ea001e0f40000f
:104e48009e007800110798001e00900090009000c6
:104e580060418000008060000000e0001700320020
:104e68001e009000100078000000e00013003a00d7
:104e78001e00900090009000604180000080ea00d1
:104e8800808060001e00900011009800f8f0070074
:104e98001e0090009000900020418000008040009b
:104ea800204188001e009000480007005041800003
:104eb8000000e80050418800f3f007000080fa0085
:104ec800000006000000fa00204180000080fa007f
:104ed800000006000000fa00304180000080fa005f
:104ee800000006000000fa000080fa00000006003a
:104ef8000800fa00004021001007980000832000f5
:104f0800000f78001e007800610060000040780003
:104f18000004e000070032001e0fe8001e00a10098
:104f28001e0090009e00500000832000008040007a
:104f3800100798009e007800210798002e00900026
:104f4800f04088002028ef00ae0090001e0090007e
:104f5800008f4000101c84001e0f10001e00a100ce
:104f68001e00780010418800104180008000eb008e
:104f780011009800104180008000eb0001087800c3
:104f8800ae009000310798003e0090009e0010008f
:104f98003e00900011009800114180003e009000f2
:104fa800010878003e009000100090003041880011
:104fb8003e0090001000900020418800000028006a
:104fc800604188000080fa00000006000600fa0030
:104fd80020079800e0812000000f780002003700c9
:104fe8001e007800100f78001e00780090007800ee
:104ff8002e009000808f5000f9ff39009e00780045
:10500800110798001e007800100090009e00900084
:10501800808040002e009000808f500009003a00e8
:105028001e007800900090002e0090001000900064
:10503800808040001e007800110098009e007800d3
:1050480021079800ae009000110798002e009000ec
:10505800100090009e009000808040001e007800a4
:1050680010007800808f500017003a001e0078006a
:105078009000780010418000808f50000e003200b0
:105088002e009000900090001e007800100078001c
:1050980010009000808040002e00900011009800c1
:1050a8001e00780010007800900078002e00900014
:1050b8000108780008003700114180002e00900098
:1050c80001087800040037001e007800900078007e
:1050d8002e009000010878002e0090009e007800b5
:1050e800808f5000030032001e007800ae00900050
:1050f800010878000080fa00000006000a00fa00a3
:10510800400798000000eb00100798000000eb0033
:10511800200798000080eb003007980054f0070043
:10512800f1408000010f78001e0078000000e000c8
:10513800190032001e0090000000e80010079800d7
:105148001e007800900090002e009000808f500084
:10515800030036001e007800900090002107980098
:105168001e007800900090003e009000808f500054
:10517800030031001e00780090009000310798006d
:105188001e007800100f7800104180009e00780003
:10519800808f5000e7ff3a003bf007004e00900078
:1051a800ae009000110098004e009000be009000e4
:1051b800210098004e0090009e0090003100980059
:1051c80090000700214180004e00900001087800ff
:1051d800414180004e0090005100980051418000ec
:1051e8004e00900061009800314180004e00900010
:1051f80041009800900007000080fa0000000600b7
:105208002a00fa00201798003117980042179800d2
:10521800e4004700e23328000f000900b2187800c4
:10522800be109000110798002e1090001e019000eb
:10523800020878002e1090000080e80020179800df
:105248002e1090008000eb00010878002e109000ce
:105258000080e800201798002e1090008000eb00d6
:10526800010878002e1090000080e80020179800b0
:10527800ce1090002e109000010878002e1090009b
:105288000080e800201798000000eb00000f78006d
:105298000a0037001e0078000000400000004700a8
:1052a800a00090002e109000010878002e109000a9
:1052b8000080e800201798001e0fe8001e00780004
:1052c800ef0f5000f3ff3600210280002e109000ef
:1052d800010878002e1090000080e8002017980040
:1052e80034c0bf008080fb002e10900001087800b9
:1052f8002e1090000080e800201798002e109000d3
:105308008000eb00010878002e1090000080e80073
:10531800201798002e1090000080fa000000060068
:105328000000fa0023000700004080009007780082
:105338004f007800704188003400f9004400f900fb
:105348004000f9003e00f9003c00f9003a00f9007d
:105358003800f9002c00f9002a00f9002800f900ab
:105368002600f9002400f9002200f9003200f900b3
:105378003600f9004f0778004f06be004f05be0003
:105388004f04be004f03be004f02be004f01be00d7
:105398004f00be004200f900000006001000200087
:1053a8000080fa00000006000000fa000080fa0001
:1053b800000006000400fa008039200001002000e7
:1053c800008fbe000421ef000021ef001e007800ce
:1053d8001008880021058000f0ff28000080600088
:1053e80000c0a000200588008460a9009460a8007f
:1053f8000481a80004a1a90005e1a8000080fa0022
:10540800000006000000fa0011028000f0f12f00f1
:10541800008060000050a00010028800000000001a
:1054280000000000704180000000e8007041880022
:105438000080fa00000006000000fa0070418000b9
:105448000000e90070418800704180000000e00021
:1054580005003a0011028000f0f12f000080600082
:1054680010028800000000000080fa00000006001a
:105478000200fa00000f78009e0078006480400067
:10548800800078001e007800110098001e00780047
:105498008080eb00210098009e0078006480400026
:1054a800800078001e007800310098009e00780087
:1054b80064804000800078001e0078004100980059
:1054c8001e0078008000eb00010878000080fa00d8
:1054d800000006000200fa00000f78001e007800a5
:1054e8008000eb00410098000080fa0000000600f0
:1054f8000600fa0010079800210798001e00900087
:1055080090009000010f78002e0090009e00780017
:10551800110098001e007800a00090002e00900056
:10552800210098001e00780020009000ae00900036
:10553800110098001e007800ae009000210098002d
:105548002e0090009e009000410098001e009000e0
:10555800100078008000e8001e0090000108780024
:105568000080fa00000006000800fa0020079800f2
:10557800310798003e0090009000780011079800cd
:105588001e009000e10f400004003a002e00900039
:10559800c0009000010f78000d0037002e00900029
:1055a80064004000000f7800030037001e007800f8
